:020000040800F2
:1000000000C0002031450008D1250008DD2500088A
:10001000E3250008E9250008EF250008000000009E
:10002000000000000000000000000000F5250008AE
:1000300001260008000000000D260008192600080F
:100040007945000879450008794500087945000898
:100050007945000879450008794500087945000888
:100060007945000879450008794500087945000878
:100070007945000879450008794500087945000868
:100080007945000879450008794500087945000858
:100090007945000879450008794500087945000848
:1000A0007945000879450008794500087945000838
:1000B0007945000879450008794500087945000828
:1000C0007945000879450008794500087945000818
:1000D0007945000879450008794500087945000808
:1000E00079450008794500087945000879450008F8
:1000F00079450008794500087945000879450008E8
:1001000079450008794500087945000879450008D7
:10011000794500087945000825260008794500083A
:1001200079450008794500087945000879450008B7
:1001300000000000000000000000000000000000BF
:1001400000000000000000000000000000000000AF
:10015000000000000000000000000000000000009F
:10016000000000000000000000000000000000008F
:10017000000000000000000000000000000000007F
:10018000000000000000000000000000000000006F
:10019000000000000000000000000000000000005F
:1001A000000000000000000000000000000000004F
:1001B000000000000000000000000000000000003F
:1001C000000000000000000000000000000000002F
:1001D000000000000000000000000000000000001F
:0401E0005FF8E0F1F3
:1001E40010B5054C237833B9044B13B10448AFF36D
:1001F40000800123237010BDC8000020000000000F
:100204002C66000808B5034B1BB103490348AFF340
:10021400008008BD00000000CC0000202C6600080F
:1002240080B500AF40210A4804F0A2FC0346002B2D
:100234000BD1642004F002FA4021054804F098FC34
:100244000346002B01D1012300E00023184680BDA2
:100254000008014080B500AF20210A4804F088FC62
:100264000346002B0BD1642004F0E8F92021054853
:1002740004F07EFC0346002B01D1012300E000239F
:10028400184680BD0010014080B500AF4FF4807166
:100294000A4804F06DFC0346002B0CD1642004F0E2
:1002A400CDF94FF48071054804F062FC0346002B3D
:1002B40001D1012300E00023184680BD000801405D
:1002C40080B500AF20210A4804F052FC0346002BFD
:1002D4000BD1642004F0B2F92021054804F048FC55
:1002E4000346002B01D1012300E00023184680BD02
:1002F4000010014084B080B582B000AF786007F18F
:10030400140080E80E0007F114030C49184603F0AA
:10031400F5F907F114004EF242230A22712103F089
:10032400A1F807F11403184602F0B6FB00BF083722
:10033400BD46BDE8804004B0704700BF247C00087F
:1003440084B080B58CB000AF786007F13C0080E8E1
:100354000E0000237B6207F1280300221A605A6012
:1003640007F124031946786801F074F807F11803BB
:1003740000221A605A601A7297F824303B7697F874
:1003840025307B762E23BB7697F82630FB7697F8BC
:1003940027303B772E237B7797F82830BB7797F865
:1003A4002930FB7707F1100300221A609A8097F82E
:1003B4002A303B7497F82B307B743A23BB7497F83C
:1003C4002C30FB7497F82D303B7507F10C0300219A
:1003D4000A461A800A469A7097F82E303B7397F8AB
:1003E4002F307B7307F13C031449184603F086F958
:1003F40007F1100307F13C003022142103F0E0F868
:1004040007F13C030E49184603F078F907F1180385
:1004140007F13C000A22282103F0D2F807F10C036B
:1004240007F13C003022712103F0CAF800BF3037D5
:10043400BD46BDE8804004B0704700BFA4A50008D5
:100444009870000884B080B500AF07F1080C8CE800
:100454000F0007F1080002F0ACFA1F4B0A220A2130
:1004640007F1080003F0ACF81C4B16220A2107F12F
:10047400080003F0A5F81A4B22220A2107F108000C
:1004840003F09EF8174B2E220A2107F1080003F00F
:1004940097F8154B3A220A2107F1080003F090F867
:1004A400124907F1080003F029F9D7F89C309BB2F0
:1004B4001A46520013449B009BB2023B9AB24EF27E
:1004C4002E133C2107F1080002F0CCFF00BFBD460B
:1004D400BDE8804004B070475866000860660008B4
:1004E400686600087066000878660008247C0008C6
:1004F40084B090B58BB000AF07F1380484E80F00E6
:1005040000237B6200233B629E4907F1380003F01D
:10051400F5F80123FB6182E0FB699B00D7F8CC204E
:1005240013441B68002B77D07B6A01337B62FB6921
:1005340003F1200294497B6A41F823207B6A5A1E06
:10054400924B83FB021313449910D317C91A0B4619
:10055400DB005B1AD11A8BB21A46520013449B007B
:1005640099B27B6A013B894A82FB03021A449210C6
:10057400DB17D31A9BB21A4692001A445200134452
:100584005B009BB221339AB2FB699BB220339BB2CE
:1005940007F1380002F066FFFB699B00D7F8CC2016
:1005A40013441B68022B37D17B6A01337B62FB69DE
:1005B40003F1300274497B6A41F823207B6A5A1E96
:1005C400724B83FB021313449910D317C91A0B46B9
:1005D400DB005B1AD11A8BB21A46520013449B00FB
:1005E40099B27B6A013B694A82FB03021A44921066
:1005F400DB17D31A9BB21A4692001A4452001344D2
:100604005B009BB221339AB2FB699BB230339BB23D
:1006140007F1380002F026FFFB690133FB61FB6937
:100624000E2B7FF779AF0123BB6142E0584ABB69C7
:1006340052F82330002B39D03B6A0A2B11DC3B6A79
:100644009BB21A4692001A445200134499B24E4A7D
:10065400BB6952F823309BB2102207F1380002F034
:1006640001FF3B6A0A2B1EDD3A6A4A4B83FB0213E5
:100674009910D317C91A0B469B000B445B00D11A7F
:100684008BB21A4692001A44520013449BB2483368
:1006940099B23D4ABB6952F823309BB2212207F13B
:1006A400380002F0DFFE3B6A01333B62BB69013371
:1006B400BB61394B1B68BA699A42B7DD374B1B687B
:1006C400002B57D00023BB600023FB6000233B605A
:1006D40000237B60324907F1380003F00FF801234F
:1006E4007B6112E02F4A7B6952F823207B695C1EF0
:1006F400104601F053F803461A4607F12803234431
:1007040003F8282C7B6901337B61244B1B68194651
:10071400072001F032F802467B699342E2DD0723A9
:100724003B6113E01F4A3B6952F823203B69A3F164
:100734000804104601F032F803461A4607F128036C
:10074400234403F8282C3B6901333B61134B1B689A
:100754003A699A42E6DD07F108032F22582107F18E
:10076400380002F02DFF3B463922582107F13800AA
:1007740002F026FF00BF2C37BD46BDE8904004B010
:10078400704700BFF8C300088806002093244992EC
:10079400C40600206766666608060020000700207D
:1007A40018CF00080C06002080B48BB000AF78602E
:1007B400396001237B6207E0754A7B6A002142F8B5
:1007C40023107B6A01337B627B6A0E2BF4DD714B51
:1007D40000221A603B68012B21D17B6804331B681B
:1007E40001333B6218E06C4A3B6A52F82330002B19
:1007F4000FD0674A3B6A5360664B01221A60664A0F
:100804003B6A52F823305A1E63493B6A41F823205D
:10081400BAE03B6A01333B623B6A0E2BE3DD3B6883
:10082400022B20D17B6804331B680133FB6117E082
:10083400594AFB6952F82330022B0ED1544AFB6902
:100844005360534AFB699360534AFB69002142F8A1
:100854002310504B02221A6096E0FB690133FB61BE
:10086400FB690E2BE4DD3B68042B40F38D800023F1
:10087400BB617B6804331A687B6808331B689A423F
:1008840045D17B6804331B6801337B613BE0424AFA
:100894007B6952F82330022B03D1BB690133BB615E
:1008A4002EE0BB695B003A689A4227DC7A69BB692F
:1008B400D31A3B611DE0374B1B680133354A136083
:1008C400344B1B6832497A6941F82320314B1B6849
:1008D4000133304A13602F4B1B682D497A6941F864
:1008E40023202D4A3B69002142F823103B69013340
:1008F4003B613A697B699A42DDDB45E00023BB61D9
:100904007B6901337B617B690E2BC0DD3CE07B6836
:1009140004331B680133FB6033E01F4AFB6852F861
:100924002330002B03D0BB690133BB6126E0BA69D5
:100934003B689A4220DBFA68BB69D31ABB6016E0B5
:10094400144B1B680133134A1360124B1B68104984
:10095400BA6841F82320104ABB6852F823305A1E63
:100964000D49BB6841F82320BB680133BB60BA68FA
:10097400FB689A42E4DB07E00023BB61FB680133B8
:10098400FB60FB680E2BC8DD2C37BD4680BC70476E
:100994000C060020000700208C05002080B489B0DC
:1009A40000AF0123FB6107E05E4AFB69002142F8C6
:1009B4002310FB690133FB61FB690E2BF4DD5A4BF9
:1009C40000221A600023BB6101237B6139E0574A8E
:1009D4007B6952F82330022B03D1BB690133BB611D
:1009E4002CE0BB69022B27DD7A69BB69D31A3B6112
:1009F4001DE04D4B1B6801334B4A13604A4B1B6887
:100A040048493A6941F82320474B1B680133464A59
:100A14001360454B1B6843493A6941F82320434A14
:100A24003B69002142F823103B6901333B613A6979
:100A34007B699A42DDDB71E00023BB617B69013392
:100A44007B617B690E2BC2DD0123FB6032E0374AF8
:100A5400FB6852F82330002B03D0BB690133BB6120
:100A640025E0BB69042B20DDFA68BB69D31ABB609F
:100A740016E02D4B1B6801332B4A13602A4B1B686D
:100A84002849BA6841F82320284ABB6852F8233021
:100A94005A1E2649BB6841F82320BB680133BB605A
:100AA400BA68FB689A42E4DB38E00023BB61FB6868
:100AB4000133FB60FB680E2BC9DD01237B602AE058
:100AC4001A4A7B6852F82330002B21D0164B1B683E
:100AD4000133154A1360144B1B6812497A6841F8B4
:100AE4002320124A7B6852F82330022B0AD10E4B82
:100AF4001B6801330C4A13600B4B1B6809497A6865
:100B040041F82320094A7B68002142F8231005E0BC
:100B14007B6801337B607B680E2BD1DD2437BD46B7
:100B240080BC70470C060020000700208C050020C4
:100B340080B487B000AF786000237B617B68012BB1
:100B440001D101237B617B68022B07D15F4B5A687B
:100B54005E4B9B689A4201D101237B617B68002B29
:100B64000BD07B68042B02DC7B68022B05DC574A24
:100B74007B6852F823300E2B01D10023A0E07B6860
:100B8400042B46DD514B5A68504B9B689A4226D140
:100B94007B6803F00103002B01D0002390E00123C4
:100BA4003B6111E03B695B00484A52F823203B69F2
:100BB4005B000133454951F823309A4201D00023A8
:100BC4007EE03B6901333B617B68DA0F13445B10C1
:100BD4001A463B699342E5DB01237B6119E001235B
:100BE400FB6010E0394AFB6852F823305A1CFB685A
:100BF4000133364951F823309A4201D000235FE093
:100C0400FB680133FB60FA687B689A42EADB0123E4
:100C14007B612F4B1B68002B04D17B69002B01D017
:100C240001234DE02A4B1B68002B48D07B69002B25
:100C340045D0274B1B68022B10DC254B1B687A68B8
:100C44009A4201D000233BE0204B5A68214B5B6859
:100C54009A4201DC002333E0012331E01C4B1B6882
:100C6400042B2ADD194B5A68184B9B689A4207D10A
:100C7400184B5A68174B9B689A4201D000231FE017
:100C8400124B5A68114B9B689A4207D0114B5A6811
:100C9400104B9B689A4201D1002311E00B4B5A6818
:100CA4000C4B5B689A4204DD094B1B687A689A42D4
:100CB40001DA002304E0012302E0002300E0002322
:100CC40018461C37BD4680BC704700BFC8050020CD
:100CD400000700200C06002084B080B5A2B022AF2B
:100CE40007F1080C8CE80F0007F1080001F061FE21
:100CF400194B2193684607F118038422194605F01D
:100D0400B3FB07F108030FCBFFF7F2FB134907F11D
:100D1400080002F0F3FC124B1B68DB00D7F89C20A0
:100D240013441B6899B20E4B1B68DB00D7F89C2058
:100D340013445B689AB242F2B45307F1080002F01C
:100D440091FB07F1080001F0A7FE00BFBD46BDE816
:100D5400804004B0704700BF4C060020A8D50008AE
:100D64008805002080B586B000AF78603B4B002238
:100D74001A603B4B0E221A603A4B0E221A603A4B11
:100D840000221A60394B01221A6001237B611BE0A7
:100D9400374A7B69002142F82310364A7B690021D7
:100DA40042F82310344A7B69002142F82310334A65
:100DB4007B69002142F82310314A7B69002142F803
:100DC40023107B6901337B617B690E2BE0DD7B683B
:100DD400184605F05DFB05F07FFB0146294B83FBBC
:100DE40001230B44DA10CB17D21A1346DB009B1AEB
:100DF4005B00CA1A531CFB601D4AFB6852F823307F
:100E0400012B0DDC1A4AFB6852F823305A1C18498E
:100E1400FB6841F82320114B1B6801330F4A136010
:100E24000E4B1B680E2B00D0D5E700BF01233B619E
:100E34000CE00F4A3B6952F82330C3F102020D491A
:100E44003B6941F823203B6901333B613B690E2B2D
:100E5400EFDD00BF1837BD4680BD00BF040600208B
:100E6400080600204806002000070020880500200E
:100E74004C0600208C050020C4060020C805002074
:100E84000C0600209324499284B080B5C4B022AFEC
:100E940007F1900C8CE80F00B34A3B4611467822C8
:100EA400184605F0E1FAD7F82401FFF75BFFAF4BD2
:100EB4002193684607F1A0038422194605F0D4FA69
:100EC40007F190030FCBFFF713FBA94907F190003B
:100ED40002F014FCBB6899B2FB689AB242F2B453B4
:100EE40007F1900002F0BEFA07F1900001F0D4FD82
:100EF40009E1FFF795F90346002B1BD09D4B1B68B6
:100F040001339C4A13609B4B1A689B4B1B689A42A3
:100F140002DD984B01221A603B462193684607F193
:100F2400A0038422194605F09FFA07F190030FCB22
:100F3400FFF7D2FEFFF78EF90346002B19D08D4B35
:100F44001B688E4A52F823208A4B1B6882F00102E8
:100F54008A4941F823203B462193684607F1A003C0
:100F64008422194605F080FA07F190030FCBFFF7AE
:100F7400B3FEFFF789F90346002B00F0A880002395
:100F8400C7F884300123C7F8803035E07B4AD7F8AE
:100F9400803052F82330002B29D0794AD7F880309A
:100FA40052F82330302B11DD754AD7F8803052F8CF
:100FB4002330D7F884200132C7F88420A3F130020B
:100FC4007049D7F8843041F8232010E06C4AD7F8F0
:100FD400803052F82330D7F884200132C7F88420B7
:100FE400A3F120026749D7F8843041F82320D7F8C9
:100FF40080300133C7F880305F4B1B68D7F88020FE
:101004009A42C3DDD7F88400FFF792FD0346002B14
:101014004DD0D7F884105B48FFF7C6FB5A4B1A68CB
:101024005A4B1B68D31A584A13600123FB670DE01F
:10103400544AFB6F52F823304C4A52F82320013AA9
:101044004A4941F82320FB6F0133FB67FA6FD7F855
:1010540084309A42ECDD0123BB670CE0494ABB6F44
:10106400002142F82310454ABB6F002142F82310A7
:10107400BB6F0133BB67BB6F0E2BEFDD3E4B1A68B2
:10108400D7F88430D31A3C4A13600023C7F884305D
:101094003B462193684607F1A0038422194605F0D4
:1010A400E3F907F190030FCBFFF716FE0FE0384981
:1010B40007F1900002F022FB364B3922582107F148
:1010C400900002F07DFA07F1900001F0E5FCFFF7D3
:1010D400F7F80346002B16D0FFF760FC2A4B1A687A
:1010E4002A4B1B68D31A284A13603B46219368464F
:1010F40007F1A0038422194605F0B6F907F190031D
:101104000FCBFFF7E9FD1C4B1B68002B04D01E4BD3
:101114001B68002B7FF4EDAE07F1900001F024FD75
:101124001D4907F1900002F0E9FA134B1B68002BEC
:1011340007D11A4B2D220A2107F1900002F040FA40
:1011440006E0174B2D220A2107F1900002F038FA2D
:1011540007F1900001F0A0FC00BF8837BD46BDE850
:10116400804004B0704700BF906600084C06002021
:10117400A8D500088805002008060020C406002021
:1011840088060020C805002048060020000700202B
:101194009870000880660008A4A50008846600080A
:1011A4008866000880B584B000AF78603960012398
:1011B400FB6055E0FB689B007A6813441B68002BB6
:1011C40056D00123BB6026E001212D4803F0FFFC2B
:1011D400FB689B007A6813441B682A4A52F8233040
:1011E400294AB2FBF3F3184601F0F0F80121244830
:1011F40003F0EDFCFB689B007A6813441B68214AEA
:1012040052F82330204AB2FBF3F3184601F0DEF81B
:10121400BB680133BB60FB689B003A6813441B68DE
:101224001946FB689B007A6813441B68154A52F8F8
:10123400233003FB01F21346DB009B1ADB0113444A
:10124400124AA2FB0323DA0ABB689A42BCD2FB68A7
:101254000133FB600E4AFB6852F82330002B09D09F
:10126400FB689B007A6813441B68FF2BA2D102E041
:1012740000BF00E000BF00BF1037BD4680BD00BF07
:10128400001001404067000898A801005917B7D121
:101294009867000880B582B000AF78607B68012B46
:1012A40003D107490748FFF77DFF7B68022B03D171
:1012B40005490648FFF776FF00BF0837BD4680BDE5
:1012C400886A000898670008FC6D00086C6D0008C7
:1012D40080B485B000AFF860B9607A60BB68022B57
:1012E40029D1FB6803F00303002B0CD1FA682A4BC5
:1012F40083FB02135911D317CB1A642101FB03F3A7
:10130400D31A002B0DD1FA68234B83FB0213D91196
:10131400D317CB1A4FF4C87101FB03F3D31A002B74
:1013240004D17B681D2B06DD012330E07B681C2B78
:1013340001DD01232BE0BB68012B11D0BB68032B1B
:101344000ED0BB68052B0BD0BB68072B08D0BB683D
:10135400082B05D0BB680A2B02D0BB680C2B04D128
:101364007B681F2B01DD012311E0BB68042B08D02F
:10137400BB68062B05D0BB68092B02D0BB680B2BBE
:1013840004D17B681E2B01DD012300E000231846F5
:101394001437BD4680BC70471F85EB5180B582B0C1
:1013A40000AF78607B6814331B683C2B4ED17B689C
:1013B400143300221A607B6810331A6801321A60F1
:1013C4007B6810331B683C2B40D17B6810330022B0
:1013D4001A607B680C331A6801321A607B680C331C
:1013E4001B68182B32D17B680C3300221A607B688F
:1013F40008331A6801321A607B6808331B681B2B98
:1014040024DD7B6818687B68043319687B680833BB
:101414001B681A46FFF75CFF0346002B16D07B6857
:10142400083300221A607B6804331A6801321A6098
:101434007B6804331B680C2B08DD7B6804330122B2
:101444001A607B681B685A1C7B681A6000BF0837E7
:10145400BD4680BD80B485B000AF786039607B68DC
:101464001B68324A82FB03129210DB17D21A2F4BED
:1014740083FB02139910D317C91A0B469B000B4424
:101484005B00D11ACBB23033DAB23B681A707B6896
:101494001A68264B83FB02139910D317C91A0B46FB
:1014A4009B000B445B00D11ACAB23B680133303253
:1014B400D2B21A700123FB602FE0FB689B007A68AC
:1014C40013441B68194A82FB03129210DB17D31AC8
:1014D400DAB2FB685B0019463B680B443032D2B287
:1014E4001A70FB689B007A6813441A680F4B83FBDD
:1014F40002139910D317C91A0B469B000B445B00C7
:10150400D11ACAB2FB685B00013339680B4430322C
:10151400D2B21A70FB680133FB60FB68052BCCDD8B
:1015240000BF1437BD4680BC704700BF676666665F
:1015340080B489B000AFF860B9607A60BB68002BF2
:1015440007D1FB681A687B685B00013B1A44FB689F
:101554001A60BB68012B16D1FB6804331A687B68D8
:101564005B00134403F10A01714B83FB01235A10FE
:10157400CB17D21A13465B0013449B00CA1AFB68AC
:10158400043301321A60BB68022B40F09080FB6880
:10159400083319687B685B005A1EFB6808330A44E9
:1015A4001A60FB681B68FB61FB685B68BB61FB68D6
:1015B4005B687B61BB69022B3CD1FB6903F00303CD
:1015C400002B0CD1FA695B4B83FB02135911D3171F
:1015D400CB1A642101FB03F3D31A002B0DD1FA6952
:1015E400544B83FB0213D911D317CB1A4FF4C87190
:1015F40001FB03F3D31A002B0ED17B691D2B03DDF2
:10160400FB68083301221A607B69002B12D1FB6846
:1016140008331D221A600DE07B691C2B03DDFB6877
:10162400083301221A607B69002B03D1FB6808335D
:101634001C221A60BB69012B11D0BB69032B0ED08D
:10164400BB69052B0BD0BB69072B08D0BB69082BE2
:1016540005D0BB690A2B02D0BB690C2B0DD17B6969
:101664001F2B03DDFB68083301221A607B69002B02
:1016740003D1FB6808331F221A60BB69042B08D00E
:10168400BB69062B05D0BB69092B02D0BB690B2BA8
:101694000DD17B691E2B03DDFB68083301221A6020
:1016A4007B69002B03D1FB6808331E221A60BB68D8
:1016B400032B16D1FB680C331A687B685B00134458
:1016C40003F11701FB6803F10C00194B83FB0123A1
:1016D4009A10CB17D21A13465B001344DB00CA1AC4
:1016E4000260BB68042B02D0BB68052B1AD1BB680F
:1016F4009B00FA6813441A687B685B00134403F187
:101704003B02BB689B00F968C8180B4B83FB0213B0
:1017140013445911D317C91A0B461B015B1A9B00BA
:10172400D11A016000BF2437BD4680BC704700BF9A
:10173400ABAAAA2A1F85EB518988888880B487B010
:1017440000AFF860B9607A6000237B610CE07B69CC
:101754009B00BA681A447B699B00F9680B441268C1
:101764001A607B6901337B617A697B689A42EEDB9C
:1017740000BF1C37BD4680BC704780B483B000AF47
:10178400786039607A683B689A4201DD3B6800E022
:101794007B6818460C37BD4680BC704780B483B064
:1017A40000AF78607B68092B04DC7B68DBB23033E4
:1017B400DBB218E07B680A2B01D14F2313E07B686E
:1017C4000B2B01D14A230EE07B680C2B01D1432360
:1017D40009E07B680D2B01D1512304E07B680E2BBB
:1017E40001D14B23FFE718460C37BD4680BC704738
:1017F40080B588B000AF07F1100300221A605A6068
:101804009A60DA602F4B9B692E4A43F01003936170
:101814002C4B9B6903F01003FB60FB68294B9B690D
:10182400284A43F020039361264B9B6903F020036D
:10183400BB60BB68234B9B69224A43F0040393615A
:10184400204B9B6903F004037B607B681D4B9B6901
:101854001C4A43F0080393611A4B9B6903F0080385
:101864003B603B6800220121174803F098F90123EB
:101874003B6101237B610023BB610223FB6107F110
:1018840010031946104803F009F848F2C0133B61ED
:1018940000237B610123BB6107F1100319460B4848
:1018A40002F0FCFF20233B6100237B610123BB6129
:1018B40007F110031946044802F0F0FF00BF203777
:1018C400BD4680BD001002400010014000080140E8
:1018D40080B500AF124B134A1A60114B124A5A607A
:1018E4000F4B00229A600E4B0022DA600C4B4FF42F
:1018F40080421A610A4B00225A61094B00229A6104
:10190400074B0022DA61064B00221A62044803F0F6
:1019140077F90346002B01D000F0E8FC00BF80BD3E
:101924000407002000540040A086010080B588B060
:1019340000AF786007F1100300221A605A609A60C1
:10194400DA607B681B68154A934223D1144B9B6968
:10195400134A43F008039361114B9B6903F0080396
:10196400FB60FB68C0233B6112237B610323FB61A3
:1019740007F1100319460B4802F090FF084BDB698E
:10198400074A43F40013D361054BDB6903F40013E6
:10199400BB60BB6800BF2037BD4680BD005400401B
:1019A40000100240000C0140B0B5A2B022AF0D48B7
:1019B40000F0BCFD0B4801F0D7F80B4804F0CAF95D
:1019C4000A4B1D68074C684604F10C03882219462B
:1019D40004F04AFD94E80E002846FEF78BFC00BF95
:1019E400BD46B0BD5807002008080020F0000020C4
:1019F400B0B5A2B022AF164B1B68002B14D015480B
:101A040001F0B2F8144B1D68124C684604F10C0343
:101A14008822194604F028FD94E80E002846FEF7B3
:101A240069FC0B4B00221A600A4C684604F10C0353
:101A34008822194604F018FD94E80E000748FEF7C2
:101A44007FFC044801F028F800BFBD46B0BD00BFCC
:101A5400E400002058070020F000002000000020CF
:101A6400B0B5A2B022AF1F4B1B68002B2BD01E4871
:101A740001F07AF81D4B1D681B4C684604F10C03F9
:101A84008822194604F0F0FC94E80E002846FEF77C
:101A940031FC144B00221A60154B01932023009350
:101AA400202305223021104800F040FF11490E4840
:101AB40001F024FE104B322226210B4801F080FD58
:101AC400094800F0E9FFFEF7C5FB0346002B05D0EB
:101AD4000A4B15221A60034B01221A6000BFBD464F
:101AE400B0BD00BFE400002058070020F000002033
:101AF400006F000898700008086700085400002070
:101B0400B0B5A2B022AF1F4B1B68002B2BD01E48D0
:101B140001F02AF81D4B1D681B4C684604F10C03A8
:101B24008822194604F0A0FC94E80E002846FEF72B
:101B3400E1FB144B00221A60154B01932023009300
:101B4400202305223021104800F0F0FE11490E48F0
:101B540001F0D4FD104B32222B210B4801F030FD53
:101B6400094800F099FFFEF775FB0346002B05D0EA
:101B74000A4B1F221A60034B01221A6000BFBD46A4
:101B8400B0BD00BFE400002058070020F000002092
:101B9400806E000898700008146700085400002044
:101BA400B0B5A2B022AF1F4B1B68002B2BD01E4830
:101BB40000F0DAFF1D4B1D681B4C684604F10C0352
:101BC4008822194604F050FC94E80E002846FEF7DB
:101BD40091FB144B00221A60154B019320230093B0
:101BE400202305223021104800F0A0FE11490E48A0
:101BF40001F084FD104B32222D210B4801F0E0FC52
:101C0400094800F049FFFEF725FB0346002B05D0E9
:101C14000A4B29221A60034B01221A6000BFBD46F9
:101C2400B0BD00BFE400002058070020F0000020F1
:101C3400806F0008987000081C670008540000209A
:101C4400B0B5A2B022AF1F4B1B68002B2BD01E488F
:101C540000F08AFF1D4B1D681B4C684604F10C0301
:101C64008822194604F000FC94E80E002846FEF78A
:101C740041FB144B00221A60154B0193202300935F
:101C8400202305223021104800F050FE11490E484F
:101C940001F034FD104B32222D210B4801F090FC51
:101CA400094800F0F9FEFEF7D5FA0346002B05D0EB
:101CB4000A4B33221A60034B01221A6000BFBD464F
:101CC400B0BD00BFE400002058070020F000002051
:101CD4000070000898700008246700085400002071
:101CE400B0B5A2B022AF654B1B68002B42D064484C
:101CF40000F03AFF634B1D68614C684604F10C0325
:101D04008822194604F0B0FB94E80E002846FEF73A
:101D1400F1FA5A4B00221A6006225B495B48FFF72E
:101D24000DFD5B4B00221A60554C684604F10C0310
:101D34008822194604F098FB94E80E005348FEF7F5
:101D4400FFFA54494E4801F0D9FC514B1B68524AE2
:101D540052F8333099B24E4B1B684F4ADB001344A0
:101D64005B689AB24EF22B13454801F07BFB444862
:101D740000F092FEFEF76EFA0346002B0AD006220C
:101D840042494148FFF7DAFC444B02221A603B4BBC
:101D940001221A60FEF778FA0346002B05D03F4B68
:101DA40002221A60354B01221A60FEF739FA034603
:101DB400002B43D0364B1B68591C394B83FB013233
:101DC400CB17D21A13465B0013445B00CA1A304B7C
:101DD4001A602B4800F0EDFD294C684604F10C0311
:101DE4008822194604F040FB94E80E002748FEF7C9
:101DF400A7FA2849224801F081FC254B1B68264A92
:101E040052F8333099B2224B1B68234ADB00134447
:101E14005B689AB24EF22B13194801F023FB194B5D
:101E24001D68174C684604F10C038822194604F017
:101E34001BFB94E80E002846FEF75CFAFEF740FA16
:101E44000346002B16D0124B1B68012219460F487B
:101E5400FFF76EFB0A4C684604F10C03882219460E
:101E640004F002FB94E80E000848FEF769FA0448FF
:101E740000F012FE00BFBD46B0BD00BFE40000206C
:101E840058070020F000002000000020EC0700208C
:101E9400E8000020247C00081C00002054000020DE
:101EA400ABAAAA2AB0B5A2B022AF134B1B68002B71
:101EB40014D0124800F058FE114B1D680F4C6846B0
:101EC40004F10C038822194604F0CEFA94E80E00BB
:101ED4002846FEF70FFA084B00221A60FEF7D4F9E1
:101EE4000346002B05D0074B03221A60024B012244
:101EF4001A6000BFBD46B0BDE400002058070020B2
:101F0400F000002054000020B0B5A2B022AF1E4B58
:101F14001B68002B29D01D4800F026FE1C4B1D68B1
:101F24001A4C684604F10C038822194604F09CFA02
:101F340094E80E002846FEF7DDF9134B00221A60E0
:101F4400144BDA68134B1B691A44124B5B69134434
:101F54000E4C2193684604F110038422194604F0C0
:101F640083FA94E80F00FEF78FFFFEF78DF903461E
:101F7400002B05D0084B04221A60034B01221A607F
:101F840000BFBD46B0BD00BFE400002058070020DC
:101F9400F00000200000002054000020B0B5A2B0E2
:101FA40022AF404B1B68002B26D03F4800F0DCFDDD
:101FB4003C4B00221A603D4B01221A603B4B1B68CC
:101FC400394C2193684604F110038422194604F025
:101FD4004BFA94E80F00FEF735FA354B1D68324C86
:101FE400684604F10C038822194604F03DFA94E88B
:101FF4000E002846FEF77EF9FEF746F90346002B4D
:1020040005D02C4B05221A60264B01221A60FEF7DC
:1020140021F90346002B04D0244B1B681846FFF714
:1020240039F9FEF7FDF80346002B37D01F4B1B6828
:10203400052B03D01D4B1B68013300E001231B4A11
:1020440013601B4B1D68184C684604F10C0388226E
:10205400194604F009FA94E80E002846FEF74AF9F6
:10206400124B1B68104C2193684604F11003842220
:10207400194604F0F9F994E80F00FEF7E3F90C4B64
:102084001D68094C684604F10C038822194604F0C3
:10209400EBF994E80E002846FEF72CF900BFBD4684
:1020A400B0BD00BFE400002058070020EC00002071
:1020B400F00000205400002080B500AF02F05CFA6C
:1020C40000F0B6F8FFF794FBFFF702FC00F04AFBC0
:1020D40000F0ECFAFFF768FCFEF7A2F80346002BC9
:1020E40015D0504B1B68092B11DC4E4B19684E4B15
:1020F40083FB01235A10CB17D21A13469B001344B7
:10210400CA1A531C474A1360484B01221A60454BB4
:102114001B68013B322BDFD801A252F823F000BF29
:10212400F1210008F7210008FD210008032200081E
:1021340009220008DD200008DD200008DD20000859
:10214400DD200008DD200008DD200008DD20000877
:10215400DD200008DD200008DD200008DD20000867
:10216400DD200008DD200008DD200008DD20000857
:102174000F220008DD200008DD200008DD20000813
:10218400DD200008DD200008DD200008DD20000837
:10219400DD200008DD20000815220008DD200008ED
:1021A400DD200008DD200008DD200008DD20000817
:1021B400DD200008DD200008DD200008DD20000807
:1021C4001B220008DD200008DD200008DD200008B7
:1021D400DD200008DD200008DD200008DD200008E7
:1021E400DD200008DD20000821220008FFF700FCA4
:1021F40017E0FFF735FC14E0FFF782FC11E0FFF76E
:10220400CFFC0EE0FFF71CFD0BE0FFF769FD08E0D3
:10221400FFF748FE05E0FFF777FE02E0FFF7BEFE9A
:1022240000BF59E75400002067666666E40000209A
:1022340080B590B000AF07F118032822002118469A
:1022440004F01DF93B1D00221A605A609A60DA609E
:102254001A610123BB614FF48033FB6100233B62AD
:102264000123BB6202237B634FF48033BB634FF4CF
:10227400C013FB6307F11803184603F0FFF8034685
:10228400002B01D000F032F80F237B600223BB60E7
:102294008023FB6000233B6100237B613B1D022103
:1022A400184603F06BFB0346002B01D000F01EF828
:1022B40000BF4037BD4680BD80B582B000AF7860B6
:1022C4007B681B68074A934207D1074B5B6901335C
:1022D400054A53610448FFF761F800BF0837BD465B
:1022E40080BD00BF001000400000002080B400AF9B
:1022F40000BFBD4680BC704780B588B002AFF860AF
:102304007B600B46FB721346BB72FB7A143B0C2BAF
:102314004CD801A252F823F051230008B12300083D
:10232400B12300085F230008572300088F23000807
:10233400B1230008B1230008B1230008B123000829
:10234400B1230008B1230008B5230008FFF7C0FA41
:1023540031E01B4B00221A702DE07B687B6110E09A
:10236400174B1B785A1CD1B2154A11701A467B6957
:102374001978144B99547B6901337B61BB7A013B17
:10238400BB72BB7A002BEBD115E00D4B1B789AB2D4
:102394004FF47A73009313460A4A78210A4802F0EC
:1023A40067FD0346002B05D0002305E0002303E06E
:1023B40000BF00E000BF012318461837BD4680BDAA
:1023C400F4000020F80000200407002080B485B049
:1023D40000AF78607B68DB00FB6000BFFB685A1EBF
:1023E400FA60002BFAD100BF1437BD4680BC704799
:1023F40080B586B000AFF8607B600B46FB72134675
:10240400BB72FB7A293B2A2B00F2848001A252F88A
:1024140023F000BFE1240008C9240008C5240008F3
:1024240019250008E92400081925000819250008C1
:102434001925000819250008192500081925000880
:102444001925000819250008192500081925000870
:102454001925000819250008192500081925000860
:102464001925000819250008192500081925000850
:102474001925000819250008192500081925000840
:102484001925000819250008192500081925000830
:102494001925000819250008192500081925000820
:1024A40023250008232500081925000819250008FC
:1024B400F1240008FB240008052500080F25000866
:1024C40000BF2DE00023FB8203E000BFFB8A013341
:1024D400FB82FB8AB3F5A07FF7D321E0012002F051
:1024E400ADF81DE00520FFF771FF19E0FB6800223D
:1024F40083F8272014E0FB68002283F827200FE0EC
:10250400FB68002283F827200AE0FB68002283F896
:10251400272005E0FB68012283F8272000E000BFA4
:10252400012318461837BD4680BD00BF80B582B070
:1025340000AF7860094B0A4A0A49786800F03AFB10
:10254400786801F056FF0021786801F061FF78682F
:1025540000F02FFA00BF0837BD4680BDF523000800
:10256400FD220008C0EA000880B485B000AF154B16
:102574009B69144A43F001039361124B9B6903F076
:102584000103BB60BB680F4BDB690E4A43F0805309
:10259400D3610C4BDB6903F080537B607B680A4B8F
:1025A4005B68FB60FB6823F0E063FB60FB6843F05F
:1025B4000073FB60044AFB68536000BF1437BD46D8
:1025C40080BC7047001002400000014080B400AF9E
:1025D40000BFBD4680BC704780B400AFFEE780B446
:1025E40000AFFEE780B400AFFEE780B400AFFEE7C3
:1025F40080B400AF00BFBD4680BC704780B400AF5C
:1026040000BFBD4680BC704780B400AF00BFBD466C
:1026140080BC704780B500AF01F0F4FF00BF80BDFF
:1026240080B500AF024803F0F5FB00BF80BD00BFDA
:102634000808002080B586B000AF7860144A154BB6
:10264400D31A7B617B693B61134B1B68002B02D15E
:10265400114B124A1A60104B1A687B6813443A698A
:102664009A4207D203F0D6FE02460C2313604FF0C1
:10267400FF3309E0084B1B68FB60074B1A687B6853
:102684001344054A1360FB6818461837BD4680BDDD
:1026940000C000200004000078010020A0080020F1
:1026A40080B400AF00BFBD4680BC704780B582B027
:1026B40000AF3B4600221A605A60154B154A1A6057
:1026C400134B40F67F425A60114B00229A60104B24
:1026D40042F20F72DA600E4B00229A610C4803F04A
:1026E400E9FA0346002B01D0FFF700FE00233B600C
:1026F40000237B603B461946054803F031FD034641
:10270400002B01D0FFF7F2FD00BF0837BD4680BDA6
:10271400080800200010004080B584B000AF786045
:102724007B681B680D4A934213D10D4BDB690C4A3D
:1027340043F01003D3610A4BDB6903F01003FB6021
:10274400FB6800220021362002F071F8362002F0E6
:102754008AF800BF1037BD4680BD00BF001000409E
:102764000010024080B500AF114B124A1A60104BA2
:102774004FF4E1325A600E4B00229A600C4B002257
:10278400DA600B4B00221A61094B0C225A61084B88
:1027940000229A61064B0022DA61054803F05EFDCF
:1027A4000346002B01D0FFF7A1FD00BF80BD00BF91
:1027B400500800200038014080B588B000AF786030
:1027C40007F1100300221A605A609A60DA607B688D
:1027D4001B681C4A934231D11B4B9B691A4A43F430
:1027E40080439361184B9B6903F48043FB60FB684F
:1027F400154B9B69144A43F004039361124B9B6984
:1028040003F00403BB60BB684FF400733B61022315
:102814007B610323FB6107F1100319460B4802F0A7
:102824003DF84FF480633B6100237B610023BB616F
:1028340007F110031946054802F030F800BF2037AD
:10284400BD4680BD00380140001002400008014030
:1028540080B588B002AFF860084611461A460346B0
:102864007B810B463B811346FB80FB6893F89230D7
:10287400BB75BB7D002B0CBF01230023DBB27B7532
:102884007A89FB88134498B23B8901339BB23A8915
:10289400798900930346F86801F076F80346002B23
:1028A40040D00123FB7535E03B6A1A78FB7D134069
:1028B400DBB2002B0CD0FB68BA7D83F892203A89F6
:1028C4007989002300930123F86800F09FFF10E04A
:1028D400FB6893F89130002B0BD1FB687A7D83F869
:1028E40092203A897989002300930123F86800F043
:1028F4008DFF7B8901337B81FB7D5B00FB75FB7D59
:10290400002B04D10123FB753B6A01333B62FB8836
:10291400013BFB80FB88002BC6D1FB68BA7D83F8A2
:10292400922000E000BF1837BD4680BD80B588B056
:1029340002AFF860084611461A4603467B810B46EF
:102944003B811346FB80FB88FB82FB8A0733FB82B7
:10295400FB8ADB08FB827A89FB88134498B23A89A4
:102964003B8C13449BB23A89798900930346F868F7
:1029740001F00AF80346002B17D012E0F8883A89D0
:1029840079897B6A00930346F868FFF761FFFB8A45
:102994007A6A13447B623B8901333B813B8C013B64
:1029A4003B843B8C002BE9D100E000BF1837BD46C7
:1029B40080BD80B584B000AF78607B681B681B7CE9
:1029C400FB607B6893F838301A46FB6802FB03F31C
:1029D400FB60FB68DB00FB607B685B6BFA680021D3
:1029E400184603F04CFD00BF1037BD4680BD80B5CE
:1029F40086B002AF78600B46FB701346BB707B68F1
:102A04001B681B7CFB73FB78BB817B685B6BBB60C7
:102A1400FB7B9BB2BA8902FB03F3BB81BB89DB005E
:102A2400BB81BB89BA681344BB60F97BBA78BB68C5
:102A340000930B460021786801F0AAFC00BF103710
:102A4400BD4680BD80B584B000AF78600023FB73C1
:102A54007B6893F838307B737B6893F83930BB73A9
:102A64007B681B685B7C3B73BA7BFB7B194678688D
:102A7400FFF7BDFFFB7B0133FB73BB7B0133BB73F0
:102A8400FA7B7B7B9A4203D2BA7B3B7B9A42EBD3A1
:102A940000BF1037BD4680BD80B582B000AF7860FE
:102AA4007868FFF7CFFF786801F0C3FC00BF0837F0
:102AB400BD4680BD80B582B000AF78600B46FB7028
:102AC4007B68FA7883F839207B681B6B1B6878680D
:102AD40098477B681B6B5B687868984700BF08372A
:102AE400BD4680BD80B582B000AF78607B6893F846
:102AF4009330002B02D07868FFF75BFF00217868E1
:102B0400FFF7D8FF00BF0837BD4680BD80B584B04D
:102B140000AF78607868FFF795FF7B6893F83930E9
:102B2400FB737B6893F83820FB7B1344FB737B684F
:102B34001B685B7CFA7B9A4204D3786801F079FCC9
:102B440000230DE07B6893F89330002B02D0786863
:102B5400FFF72FFFFB7B19467868FFF7ABFF0123D4
:102B640018461037BD4680BD80B582B000AF78608E
:102B74007868FFF7B7FF7868FFF7C8FF0346002BB4
:102B8400F9D100217868FFF795FF00BF0837BD46EB
:102B940080BD000080B483B000AF78607B680822F9
:102BA4001A70034B18460C37BD4680BC704700BFF3
:102BB4007C01002080B588B002AFF860B9607A600B
:102BC4003B603B6800937B680B4A0C49F86801F052
:102BD4008FFC07F113031846FFF7DCFF7861FA7CDA
:102BE400BB680093064B7969F86800F0B6FF00BF34
:102BF4001837BD4680BD00BF35400008914200082B
:102C0400E339000880B483B000AF78600B46FB70F2
:102C1400FB787A6813447B607B681B7818460C3712
:102C2400BD4680BC704780B485B000AF78600B4669
:102C3400FB70FB787A6813447B607B681B78FB81AC
:102C44007B6801337B60FB891B02FB817B681B78FB
:102C54009AB2FB891344FB81FB8918461437BD469D
:102C640080BC704780B582B000AF786039600021C5
:102C74003868FFF7C7FF03461A467B681A700121BC
:102C84003868FFF7BFFF03461A467B685A70022173
:102C94003868FFF7B7FF03461A467B689A7003212A
:102CA4003868FFF7AFFF03461A467B68DA700421E1
:102CB4003868FFF7A7FF03461A467B681A71052197
:102CC4003868FFF79FFF03461A467B685A7106214E
:102CD4003868FFF797FF03461A467B689A71072105
:102CE4003868FFF78FFF03461A467B68DA710821BC
:102CF4003868FFF787FF03461A467B681A72092172
:102D04003868FFF77FFF03465AB27B685A720A217C
:102D14003868FFF777FF03465AB27B689A720B2133
:102D24003868FFF76FFF03465AB27B68DA720C21EA
:102D34003868FFF767FF03465AB27B681A730D21A0
:102D44003868FFF75FFF03465AB27B685A730E2157
:102D54003868FFF757FF03465AB27B689A730F210E
:102D64003868FFF74FFF03465AB27B68DA731021C5
:102D74003868FFF747FF03465AB27B681A7411217B
:102D84003868FFF750FF03461A467B685A821321BE
:102D94003868FFF748FF03461A467B689A82152174
:102DA4003868FFF740FF03461A467B68DA8200BFA3
:102DB4000837BD4680BD80B485B000AF78600B464F
:102DC400FB707B681B7B7B737B681B681B78FB73C6
:102DD400FA7B7B7B42FA03F3FB737B7BBB73BA7B8B
:102DE400FB781344BB73BB7B072B1AD908233B73B3
:102DF4003A7B7B7BD31A3B737B681B685A1C7B68CA
:102E04001A607B681B681B781A463B7B02FA03F343
:102E14005AB297F90F3013435BB2FB73BB7B083B89
:102E2400BB73FB784FF0FF3202FA03F3DBB2DB43F0
:102E3400DAB2FB7B1340FB737B68BA7B1A73FB7BB0
:102E440018461437BD4680BC704780B584B000AFC7
:102E540078600B46FB70FB7819467868FFF7ABFF88
:102E64000346FB730123BB73FB78013BFB7097F9AB
:102E74000E20FB7802FA03F3BB73FA7BBB7BD31AF5
:102E8400DBB2FB7397F90F3018461037BD4680BD8F
:102E940090B482B000AF0446084611461A46234651
:102EA400FB8003467B710B463B711346FB70FB783A
:102EB400012B0AD0022B0FD0002B14D197F9043028
:102EC4009AB2FB881344FB8014E097F905309AB258
:102ED400FB881344FB800DE097F904309BB2FA8819
:102EE400D31AFB8006E097F905309BB2FA88D31A0F
:102EF400FB8000BFFB8818460837BD4690BC70476E
:102F040090B482B000AF0446084611461A462346E0
:102F1400FB8003467B710B463B711346FB70FB78C9
:102F2400012B0AD0022B0FD0002B14D197F90530B6
:102F34009AB2FB881344FB8014E097F904309BB2E7
:102F4400FA88D31AFB800DE097F905309BB2FA8812
:102F5400D31AFB8006E097F904309AB2FB88134435
:102F6400FB8000BFFB8818460837BD4690BC7047FD
:102F740080B588B002AF78600B46FB701346BB7017
:102F84007B6860333B61FB78FB753B6993F90830E0
:102F94007B753B6993F909303B753B6993F90A30BA
:102FA400FB73FA7B7B7DD31AFB73FB7BBB75FA7DCA
:102FB400FB7B9A4201D2FB7DBB753B699B88BB813D
:102FC4003B69DB887B8197F9151097F914203B69DD
:102FD4001B7CB889FFF794FF0346BB8197F9151052
:102FE40097F914203B691B7C7889FFF751FF03464E
:102FF4007B81BB78002B10D03B699A7B7B6883F87C
:103004009220BB7D98B23B691B7C7A89B989009375
:103014000346786800F0FAFB13E03B695B7B002B06
:103024000FD13B69DA7B7B6883F89220BB7D98B231
:103034003B691B7C7A89B98900930346786800F060
:10304400E5FBFA7DFB7B9A4209D3FA7DFB7BD31A1D
:10305400FB7500237B753B7D01333B759DE700BF0A
:103064007A7DFB7D13447B7597F915203B691A72B1
:1030740097F914203B695A7200BF1837BD4680BDCA
:1030840080B584B000AF786039607B686033FB60E2
:10309400FB683A681A60FB6800221A737B6893F82D
:1030A40078301946F868FFF786FE03465AB2FB6883
:1030B4009A727B6893F879301946F868FFF77BFEBB
:1030C40003465AB2FB68DA727B6893F89220FB6875
:1030D4009A73FB689B7B002B0CBF01230023DBB29C
:1030E4001A46FB68DA7300BF1037BD4680BD000086
:1030F40080B58AB002AF786039607B6860337B61E9
:1031040039687868FFF7BCFF7B6893F86B30FB7411
:103114007B6893F87A3019467869FFF796FE034680
:10312400BB747B6893F87B3019467869FFF78DFE92
:1031340003467B747B6893F87C3019467869FFF703
:1031440084FE03463B747B6993F90A30002B40F3F9
:10315400D7807B699888FA7C7B7C1344DBB25B4222
:10316400DBB25AB27B691B7C97F91210FFF7C8FED9
:1031740003461A467B699A807B69D888FA7C7B7CF3
:103184001344DBB25B42DBB25AB27B691B7C97F916
:103194001210FFF77DFE03461A467B69DA807B69CD
:1031A4009B88FB837B69DB887B83FB8BBB837B8B6B
:1031B4003B837B691B7C032B5AD801A252F823F072
:1031C400D5310008F1310008193200084D320008E9
:1031D4007B6993F90A309AB2BB8B1344BB8397F98A
:1031E40013309AB23B8B13443B8341E097F913307D
:1031F4009BB2FA8BD31AFB83FB8B0133FB83BB8B10
:103204000133BB837B6993F90A309AB23B8B134435
:103214003B832DE07B6993F90A309BB2FA8BD31A76
:10322400FB83FB8B0133FB83BB8B0133BB8397F99C
:1032340013309BB27A8BD31A7B837B8B01337B83D2
:103244003B8B01333B8313E097F913309AB2BB8B6A
:103254001344BB837B6993F90A309BB27A8BD31AEC
:103264007B837B8B01337B833B8B01333B8300BFAD
:10327400B88B7A8BF98B3B8B00930346786800F00C
:1032840083FB0346002B02D197F910303AE07B69A7
:1032940000221A727B6900225A727B6893F8763096
:1032A40019467869FFF787FD0346FB737B6893F83B
:1032B400773019467869FFF77EFD0346BB73FB7BC5
:1032C400002219467868FFF753FEBB7B012219469A
:1032D4007868FFF74DFE01217869FFF76CFD03461E
:1032E400002BECD17B6993F9093097F913209A42AA
:1032F40000DDD2E700BF7B699A7B7B6883F892206C
:1033040097F9103018462037BD4680BD80B586B089
:1033140000AF78600B467B807B689B6D7B617B692B
:1033240017337B617B88FF2B2AD87B88602B07D9D6
:103334007B68B3F888301A467B6913447B6109E0E3
:103344007B88402B06D97B68B3F886301A467B69A4
:1033540013447B617B6901331B78002B4ED07B695E
:103364001B789BB27A889A4202D17B69023349E086
:103374007B6901331B781A467B6913447B61E9E757
:103384007B68B3F88A301A467B6913447B617B6996
:103394003B6100213869FFF746FC03461A467B6906
:1033A40013447B6102213869FFF73DFC0346FB812E
:1033B4003B6904333B61FA897B889A42E9D37B6990
:1033C4001B78FB81FB891B02FB817B6901331B7822
:1033D4009AB2FB891343FB81FB89002B10D0FA8935
:1033E4007B889A4202D17B6903330BE07B69023309
:1033F4001B781A467B6913447B61E0E700BF00E059
:1034040000BF002318461837BD4680BD80B586B07E
:1034140000AFF860084611461A4603467B810B4606
:103424003B811346FB800023FB82FB687A89A3F867
:103434006420FB683A89A3F86620FB881946F8687B
:10344400FFF764FF38613B69002B05D03969F868E0
:10345400FFF74EFE0346FB82FB8A18461837BD462B
:1034640080BD000080B584B000AFF8600846114606
:103474001A4603467B810B463B811346FB80FB685F
:1034840093F87030032B33D801A252F823F000BF15
:10349400A5340008B9340008CD340008E13400082C
:1034A400FB68DB6DF868984703461A463B8913446A
:1034B4003B811DE0FB68DB6DF868984703461A46BC
:1034C4007B899B1A7B8113E0FB68DB6DF868984766
:1034D40003461A463B899B1A3B8109E0FB68DB6D76
:1034E400F868984703461A467B8913447B8100BFDA
:1034F400FB883A897989F868FFF788FF03461846FC
:103504001037BD4680BD00BF80B586B000AFF860FF
:103514007B600B467B8113463B81F86800F05FFCBF
:103524000023FB82FB685B687A6812781146F868AE
:1035340098470346BB82BB8A4FF6FF72934238D04A
:103544007B6801337B60BB8A4FF6FE729342E9D0FD
:10355400BB8A3A897989F868FFF784FF03467B823E
:10356400FB6893F87030032B1ED801A252F823F0A5
:10357400853500088F35000899350008A335000803
:103584007A897B8A13447B810EE03A897B8A1344CF
:103594003B8109E07A897B8AD31A7B8104E03A89EA
:1035A4007B8AD31A3B8100BFFA8A7B8A1344FB824D
:1035B400B8E700BFFB8A18461837BD4680BD00BF78
:1035C40080B584B000AFF8607B600B467B81134606
:1035D4003B81FB68064A5A603A8979897B68F868B6
:1035E400FFF792FF034618461037BD4680BD00BF63
:1035F400FD3D000880B483B000AF78607B689B6DAC
:10360400002B5DD07B6893F981207B6883F88E2042
:103614007B6893F982207B6883F88F207B6893F81A
:103624008D30002B4DD07B6893F88D30012B1CD14D
:103634007B6893F98E207B6893F983309A4205DA8C
:103644007B6893F983207B6883F88E207B6893F9E9
:103654008F207B6893F984309A4232DD7B6893F93A
:1036640084207B6883F88F202BE07B6893F98E306D
:103674001A467B6893F97E3019467B6893F980304B
:103684000B449A420DDA7B6893F97E30DAB27B6898
:1036940093F98030DBB21344DBB25AB27B6883F80F
:1036A4008E207B6893F98F207B6893F980309A424F
:1036B40007DD7B6893F980207B6883F88F2000E026
:1036C40000BF0C37BD4680BC704780B483B000AFE8
:1036D4007860002318460C37BD4680BC7047000054
:1036E40080B483B000AF78607B68034ADA6500BFBA
:1036F4000C37BD4680BC7047CF36000880B582B019
:1037040000AF786039607B689B6D3A689A420BD051
:103714007B683A689A657B68743339681846FFF7A2
:10372400A1FA7868FFF766FF00BF0837BD4680BD81
:1037340080B487B000AFF860B96011461A460B46F2
:10374400FB801346BB80FB681B88FB82FB8ABB8221
:10375400BB681A88BB8A1344BB82FA8ABB8A9A4222
:103764000BD9FA8ABB889A4205D2BB88BB82BB8A32
:10377400013BBB8201E0FB88FB82FA8ABB889A4248
:1037840001D300231CE0BA8AFB889A4201D80023A3
:1037940016E0FA8AFB889A4201D2FB88FB82BA8A35
:1037A400BB889A4201D9BB88BB82FB68FA8A1A801B
:1037B400BA8AFB8AD31ABB82BB68BA8A1A800123ED
:1037C40018461C37BD4680BC704790B587B002AF21
:1037D400F860084611461A4603467B810B463B8136
:1037E4001346FB80FB68DB8F3A89D31A3B81FB6865
:1037F400DC6AF8883A89798997F82030009303467F
:10380400F868A04700BF1437BD4690BD90B587B097
:1038140002AFF860084611461A4603467B810B4600
:103824003B811346FB80FB6893F88C30002B75D0EA
:10383400FB88002B72D0FB88012B1AD997F8203013
:10384400022B09D17A89FB88D31A9BB27B817B89AD
:1038540001339BB27B810CE097F82030032B08D115
:103864003A89FB88D31A9BB23B813B8901339BB2D3
:103874003B8197F8203003F0010387F8203097F854
:103884002030002B1AD1FB68B3F84C203B899A42B4
:103894003BD8FB68B3F84E203B899A4237D9FB6882
:1038A400B3F84820FB68B3F84A30B91D07F10A00A1
:1038B400FFF73EFF0346002B1AD12FE0FB68B3F855
:1038C40048207B899A4224D8FB68B3F84A207B8934
:1038D4009A4220D9FB68B3F84C20FB68B3F84E3009
:1038E400B91D07F10800FFF723FF0346002B14D08E
:1038F400FB681B6B9C6879893A89F88897F82030B3
:1039040000930346F868A04708E000BF06E000BF44
:1039140004E000BF02E000BF00E000BF1437BD4672
:1039240090BD90B482B000AF0446084611461A46D2
:103934002346FB800346BB800B467B8013463B80BB
:103944007A88BB889A420DD23A88FB889A4201D978
:10395400012314E07A883B889A4201D901230EE0BE
:1039640000230CE03A88FB889A4207D97A883B887E
:103974009A4201D9012302E0002300E00023184603
:103984000837BD4690BC704780B584B000AFF8607E
:10399400084611461A4603467B810B463B81134673
:1039A400FB80FB68B3F84C00FB68B3F84E103B8B0C
:1039B4003A89FFF7B6FF0346002B01D100230AE042
:1039C400FB68B3F84800FB68B3F84A10FB887A89AF
:1039D400FFF7A7FF034618461037BD4680BD80B4E5
:1039E40089B000AFF860084611461A4603467B8149
:1039F4000B463B811346FB803B89FB76FB7E03F041
:103A04000703FB7601233B763A7EFB7E02FA03F33F
:103A14003B760023BB7600237B76FB6893F89230D9
:103A2400012B01D83B7EBB76FB6893F89230012BC7
:103A340001D03B7E7B763B89FB82FB8A23F0070324
:103A4400FB82FB681B681B7C9BB2FA8A02FB03F3B4
:103A5400FB82FB685B6BFB61FB8AFA691344FB61C5
:103A64007B89FA691344FB6197F82830002B17D13E
:103A7400FB691A78BB7E1343DAB2FB691A70FB69DF
:103A84001A787B7E5340DAB2FB691A70FB69013302
:103A9400FB61FB88013BFB80FB88002BE8D138E00D
:103AA400FB691A78BB7E1343DAB2FB691A70FB69AF
:103AB4001A787B7E5340DAB2FB691A70FB7E0133BD
:103AC400FB76FB7E03F00703FB76FB88013BFB8060
:103AD400FB7E002B14D1FB685B8F1A46FB691344F1
:103AE400FB61FB6893F89230012B01D80123BB766C
:103AF400FB6893F89230012B08D001237B7605E014
:103B0400BB7E5B00BB767B7E5B007B76FB88002BF9
:103B1400C6D100BF2437BD4680BC704780B582B093
:103B240000AF78607B680022A3F850207B680022F5
:103B3400A3F854207B684FF6FF72A3F852207B68E9
:103B44004FF6FF72A3F856207B681B6B5B6878689E
:103B5400984700BF0837BD4680BD80B584B000AF2C
:103B6400F860B9603B601346FB71FB6800229A65FC
:103B7400FB683A68DA62FB68BA685A63FB68FA79E8
:103B840083F83820FB68002283F83920FB68002280
:103B940083F86D20FB68002283F89120FB680122E2
:103BA40083F89220FB68012283F89320FB68BA69AA
:103BB4001A63FB681B6B1B68F8689847F868FFF783
:103BC400ADFFF868FFF78CFDFB68002283F87020D6
:103BD40000BF1037BD4680BD80B485B000AF7860AB
:103BE4007B681B68BB607B6893F83830FB81FB897A
:103BF400DB00FB817B68FA899A87BB681B7CFB81AD
:103C0400FB89DB00FB817B68FA895A877B6893F820
:103C14003930FB81FB89DB00FB817B68FA89DA8719
:103C24007B6893F83830FB81FB897A6892F83920F5
:103C34001344BA68527C934208DDBB685B7C9AB239
:103C44007B6893F839309BB2D31AFB81FB89DB0084
:103C5400FB817B68DA8F7B68A3F840207B68B3F82C
:103C640040207B68A3F842207B68B3F84220FB899C
:103C740013449AB27B68A3F84220BB689A8A7B6893
:103C8400A3F84420BB68DA8A7B68A3F8462000BF07
:103C94001437BD4680BC704780B584B002AF7860ED
:103CA4007B68B3F850107B68B3F854207B68B3F892
:103CB40052007B68B3F85630009303467868FFF7E8
:103CC40063FE0346002B04D17B68002283F88C201A
:103CD4003BE07B68012283F88C207B68B3F84820A2
:103CE4007B68B3F850309A4205D27B68B3F8502011
:103CF4007B68A3F848207B68B3F84A207B68B3F854
:103D040052309A4205D97B68B3F852207B68A3F8F5
:103D14004A207B68B3F84C207B68B3F854309A424D
:103D240005D27B68B3F854207B68A3F84C207B68E9
:103D3400B3F84E207B68B3F856309A4205D97B68B5
:103D4400B3F856207B68A3F84E2000BF0837BD4661
:103D540080BD80B582B000AF78607868FFF73CFF23
:103D640000BF0837BD4680BD80B582B000AF786023
:103D74007B680022A3F848207B68B3F844207B6862
:103D8400A3F84A207B68B3F840207B68A3F84C2052
:103D94007B68B3F842207B68A3F84E207868FFF76D
:103DA4007BFF00BF0837BD4680BD80B586B002AF3B
:103DB400F860084611461A4603467B810B463B8150
:103DC4001346FB80F8883A8979893B7E0093034641
:103DD400F868FFF7FAFC00BF1037BD4680BD80B419
:103DE40083B000AF78607B68002283F8262000BF90
:103DF4000C37BD4680BC704780B483B000AF786098
:103E04000B46FB70FB78002B02D0FB780A2B02D107
:103E14004FF6FF7301E0FB789BB218460C37BD46A2
:103E240080BC704790B585B000AFF8600B467A60EF
:103E3400FB72FB681C69FA7A7B681721F868A04753
:103E4400034618461437BD4690BD80B582B000AF16
:103E540078600B46FB70FB1C1A4601217868FFF75B
:103E6400E1FF034618460837BD4680BD90B583B0D0
:103E740000AF78607B681C690023002218217868F1
:103E8400A047034618460C37BD4690BD90B583B095
:103E940000AF78607B681C690023002219217868D0
:103EA400A047034618460C37BD4690BD90B583B075
:103EB40000AF78600B46FB707B68DC68FA780023FF
:103EC40015217868A047034618460C37BD4690BDB7
:103ED40090B583B000AF78600B46FB707B68DC68FC
:103EE400FA78002316217868A047034618460C3751
:103EF400BD4690BD90B585B000AFF8600B467A60C2
:103F0400FB72FB68DC68FA7A7B681721F868A047C3
:103F1400034618461437BD4690BD90B583B000AF34
:103F240078607B68DC680023002218217868A04749
:103F3400034618460C37BD4690BD90B583B000AF1C
:103F440078607B68DC680023002219217868A04728
:103F5400034618460C37BD4690BD90B585B000AFFA
:103F6400786039603B681B78FB733B6801333B60C6
:103F7400FB7B172B17D0172B02DC152B37DB04E048
:103F8400192B1EDDFE2B24D031E03B681B78BB735C
:103F94007B68DC68BA7BF97B00237868A0473B68C0
:103FA40001333B6022E03B681B78BB7307F10E03CF
:103FB4001A4601217868FFF79DFF3B6801333B6097
:103FC40014E07B68DC68F97B002300227868A04752
:103FD4000CE03B681B78BB73BB7B1A4629217868CD
:103FE40000F036FA3B6801333B6000BFBAE700BF1C
:103FF4001437BD4690BD90B585B000AFF8600B4650
:104004007A60FB72F868FFF731FF4021F868FFF728
:104014001CFFFB681C69FA7A7B681721F868A047C3
:10402400F868FFF733FF00BF1437BD4690BD0000AA
:1040340090B587B000AFF8607B600B46FB72134607
:10404400BB72FB7A143B052B6ED801A252F823F005
:10405400EB4000086D4000089B400008A7400008A2
:104064000F41000817410008334B1B78002B02D086
:10407400F868FFF70BFFF868FFF7F8FE0021F8680F
:10408400FFF7E3FEBB7A1946F868FFF7DEFE2A4B1A
:1040940001221A704AE0BB7A1946F868FFF7D5FE88
:1040A40044E0254B1B78002B02D0F868FFF7EEFEA6
:1040B4007B687B610AE07A691821F868FFF79BFF47
:1040C400BB7A183BBB727B6918337B61BB7A182BB4
:1040D400F1D8BB7A7A691946F868FFF78CFF164B5A
:1040E40000221A7022E0FB6893F82430FF2B03D1DE
:1040F400FB68782283F82420FB681C69BA7AF97A71
:104104007B68F868A047034611E00B4B00221A7045
:104114000CE0094B1B78002B02D0F868FFF7B6FEC1
:10412400054B00221A7001E0002300E00123184629
:104134001C37BD4690BD00BF7C05002080B586B00D
:1041440000AFF8607B600B46FB721346BB72FB7AD0
:104154000B3B042B00F28A8001A252F823F000BF2B
:10416400794100087142000893410008C5410008E4
:10417400E5410008BB7A002B04D14049F868FFF7F9
:10418400ECFE75E03E49F868FFF7E7FE70E0BB7AA5
:10419400002B0AD13B49F868FFF7DFFEFB681B6878
:1041A4009A7CFB6883F8222062E03749F868FFF7BD
:1041B400D4FEFB681B68DA7CFB6883F8222057E096
:1041C400F868FFF7AAFE8121F868FFF76FFEBB7A53
:1041D4001946F868FFF77CFEF868FFF7AEFE47E083
:1041E400F868FFF79AFE7B685B79FB75FB7DDB0063
:1041F400FB75FB6893F82220FB7D1344FB7540217B
:10420400F868FFF753FEFB7D1B09DBB243F0100394
:10421400DBB21946F868FFF749FEFB7D03F00F0394
:10422400DBB21946F868FFF753FE7B689B7963F0AD
:104234004F03DBB21946F868FFF74AFE7B681B7927
:10424400BB757B681B683B61BB7DDB00DBB23A69F5
:104254001946F868FFF74EFEBB7A013BBB72BB7A86
:10426400002BEBD1F868FFF768FE01E0002300E0C3
:10427400012318461837BD4680BD00BF04EB000873
:104284000CEB000814EB00081CEB000880B584B0AC
:1042940000AFF8607B600B46FB721346BB72BA7AC0
:1042A400F97A7B68F868FFF749FF0346002B01D0D1
:1042B400012314E0FB7A092B09D00A2B0CD1F868EE
:1042C40000F029F80849F868FFF747FE06E00749B7
:1042D400F86800F00DF801E0002300E0012318461F
:1042E4001037BD4680BD00BFCCEA000824EB0008AF
:1042F40080B483B000AF786039607B683A681A6034
:104304007B681B689A7C7B6883F8222000BF0C378B
:10431400BD4680BC704790B583B000AF78607B68C1
:104324005C690023002228217868A0477B68DC6848
:104334000023002214217868A04701224B217868C9
:1043440000F086F87B681B681B791A462921786877
:1043540000F07EF800224B21786800F079F87B6841
:104364001B681B791A462921786800F071F801222C
:104374004B21786800F06CF87B681B685B791A46FF
:104384002921786800F064F800BF0C37BD4690BD61
:1043940090B585B000AF7860084611461A460346CA
:1043A400FB700B46BB7013467B70FB787B73BB784A
:1043B400BB737B783B733B6ABB607B689C6807F18B
:1043C400080301220F217868A047034618461437D2
:1043D400BD4690BD90B583B000AF78607B689C68A3
:1043E4000023002209217868A04700BF0C37BD468E
:1043F40090BD90B583B000AF78607B689C68002363
:1044040000220A217868A04700BF0C37BD4690BD42
:1044140090B583B000AF78600B46FB707B689C68F6
:10442400FA7800230B217868A04700BF0C37BD46FB
:1044340090BD90B583B000AF78607B689C68002322
:10444400002210217868A04700BF0C37BD4690BDFC
:1044540090B583B000AF78600B46FB701346BB7019
:104464007B685C69BA78F97800237868A04700BF54
:104474000C37BD4690BD80B485B000AFF8607B605A
:104484000B46FB721346BB72002318461437BD4615
:1044940080BC704780B483B000AF78607B68002232
:1044A4001A607B68114A9A607B68104ADA607B68FC
:1044B4000E4A1A617B680D4A5A617B68002283F8B0
:1044C40023207B68002283F826207B6800229A61DF
:1044D4007B68FF2283F824207B68FF2283F828204E
:1044E40000BF0C37BD4680BC704700BF7B4400084A
:1044F40080B584B000AFF860B9607A603B60F8685A
:10450400FFF7C8FFFB68BA689A60FB687A68DA60EC
:10451400FB683A681A61FB68BA695A61F868FFF780
:1045240059FF00BF1037BD4680BD00000C480D493F
:104534000D4A002302E0D458C4500433C4188C42FA
:10454400F9D30A4A0A4C002301E013600432A24260
:10455400FBD3FEF7A5F801F063FFFDF7ADFD70474F
:1045640000000020C800002044EB0008C800002020
:104574009C080020FEE7000080B500AF084B1B68D4
:10458400074A43F010031360032000F045F90020AC
:1045940000F008F8FDF7E8FF0023184680BD00BFCF
:1045A4000020024080B582B000AF7860124B1A68D8
:1045B400124B1B7819464FF47A73B3FBF1F3B2FB39
:1045C400F3F3184600F05DF90346002B01D00123F4
:1045D4000EE07B680F2B0AD8002279684FF0FF3079
:1045E40000F025F9064A7B681360002300E00123EC
:1045F40018460837BD4680BD5800002060000020E2
:104604005C00002080B400AF054B1B781A46054BB4
:104614001B681344034A136000BFBD4680BC704747
:10462400600000209408002080B400AF024B1B6897
:104634001846BD4680BC70479408002080B584B0FD
:1046440000AF7860FFF7F0FFB8607B68FB60FB6841
:10465400B3F1FF3F05D0094B1B781A46FB6813449E
:10466400FB6000BFFFF7E0FF0246BB68D31AFA689D
:104674009A42F7D800BF1037BD4680BD60000020C5
:1046840080B485B000AF78607B6803F00703FB60FB
:104694000C4BDB68BB60BA684FF6FF031340BB608A
:1046A400FB681A02BB68134343F0BF6343F400334F
:1046B400BB60044ABB68D36000BF1437BD4680BCEE
:1046C400704700BF00ED00E080B400AF044BDB682E
:1046D4001B0A03F007031846BD4680BC704700BFA1
:1046E40000ED00E080B483B000AF0346FB7197F99E
:1046F4000730002B0BDBFB7903F01F02064997F907
:1047040007305B09012000FA02F241F8232000BFC0
:104714000C37BD4680BC704700E100E080B483B034
:1047240000AF03463960FB7197F90730002B0ADBB1
:104734003B68DAB20C4997F907301201D2B20B4444
:1047440083F800230AE03B68DAB20849FB7903F0F6
:104754000F03043B1201D2B20B441A7600BF0C378C
:10476400BD4680BC704700BF00E100E000ED00E002
:1047740080B489B000AFF860B9607A60FB6803F078
:104784000703FB61FB69C3F10703042B28BF042360
:10479400BB61FB690433062B02D9FB69033B00E0D0
:1047A40000237B614FF0FF32BB6902FA03F3DA4363
:1047B400BB681A407B699A404FF0FF317B6901FA6C
:1047C40003F3D9437B680B40134318462437BD4693
:1047D40080BC704780B582B000AF78607B68013BD5
:1047E400B3F1807F01D301230FE00A4A7B68013BC8
:1047F40053600F214FF0FF30FFF790FF054B00226D
:104804009A60044B07221A60002318460837BD46F5
:1048140080BD00BF10E000E080B582B000AF7860DA
:104824007868FFF72DFF00BF0837BD4680BD80B50F
:1048340086B000AF0346B9607A60FB7300237B61E6
:10484400FFF742FF78617A68B9687869FFF790FFEB
:10485400024697F90F3011461846FFF75FFF00BF75
:104864001837BD4680BD80B582B000AF0346FB71EA
:1048740097F907301846FFF735FF00BF0837BD46E4
:1048840080BD80B582B000AF78607868FFF7A2FF82
:10489400034618460837BD4680BD000080B48BB07F
:1048A40000AF7860396000237B6200233B6233E110
:1048B40001227B6A02FA03F3FB613B681B68FA6915
:1048C4001340BB61BA69FB699A4240F022813B689C
:1048D4005B68122B34D0122B0DD8022B2BD0022B59
:1048E40004D8002B31D0012B1CD048E0032B43D03B
:1048F400112B1BD043E08F4A934226D08D4A93421A
:1049040006D88D4A934220D08C4A93421DD036E07B
:104914008B4A934219D08B4A934216D08A4A9342C7
:1049240013D02CE03B68DB683B6228E03B68DB6823
:1049340004333B6223E03B68DB6808333B621EE0E0
:104944003B68DB680C333B6219E03B689B68002BD7
:1049540002D104233B6212E03B689B68012B05D122
:1049640008233B627B68FA691A6108E008233B620A
:104974007B68FA695A6102E000233B6200BFBB69AD
:10498400FF2B01D87B6801E07B6804337B61BB6942
:10499400FF2B02D87B6A9B0002E07B6A083B9B00EA
:1049A4003B617B691A680F213B6901FA03F3DB431E
:1049B4001A40396A3B6901FA03F31A437B691A60A6
:1049C4003B685B6803F08053002B00F0A2805F4BD0
:1049D4009B695E4A43F0010393615C4B9B6903F05E
:1049E4000103BB60BB685A4A7B6A9B08023352F8D6
:1049F4002330FB607B6A03F003039B000F2202FA5F
:104A040003F3DB43FA681340FB607B68514A93422B
:104A14001FD07B68504A934219D07B684F4A934217
:104A240013D07B684E4A93420DD07B684D4A934223
:104A340007D07B684C4A934201D105230AE0062340
:104A440008E0042306E0032304E0022302E0012338
:104A540000E000237A6A02F0030292009340FA68AD
:104A64001343FB603A497B6A9B080233FA6841F8B6
:104A740023203B685B6803F48033002B06D03B4B58
:104A84001A683A49BB6913430B6006E0374B1A684E
:104A9400BB69DB43354913400B603B685B6803F437
:104AA4000033002B06D0314B5A683049BB6913439D
:104AB4004B6006E02D4B5A68BB69DB432B4913401E
:104AC4004B603B685B6803F48013002B06D0274BD4
:104AD4009A682649BB6913438B6006E0234B9A68A6
:104AE400BB69DB43214913408B603B685B6803F47B
:104AF4000013002B06D01D4BDA681C49BB69134315
:104B0400CB6006E0194BDA68BB69DB4317491340F5
:104B1400CB607B6A01337B623B681A687B6A22FA4A
:104B240003F3002B7FF4C4AE00BF2C37BD4680BC1A
:104B3400704700BF00002110000011100000121087
:104B4400000031100000321000002210001002405A
:104B54000000014000080140000C01400010014029
:104B64000014014000180140001C014000040140F1
:104B740080B485B000AF78600B467B807B689A6810
:104B84007B881340002B02D00123FB7301E0002338
:104B9400FB73FB7B18461437BD4680BC704780B45A
:104BA40083B000AF78600B467B8013467B707B78C4
:104BB400002B03D07A887B681A6103E07B881A048F
:104BC4007B681A6100BF0C37BD4680BC704780B457
:104BD40085B000AF78600B467B807B68DB68FB6048
:104BE4007A88FB6813401A04FB68D9437B880B401E
:104BF4001A437B681A6100BF1437BD4680BC7047F6
:104C040080B584B000AF78607B68002B01D10123AC
:104C14001FE17B6893F83D30DBB2002B06D17B6843
:104C2400002283F83C207868FCF780FE7B6824220D
:104C340083F83D207B681B681A687B681B6822F038
:104C440001021A607B681B681A687B681B6842F45F
:104C540000421A607B681B681A687B681B6822F430
:104C640000421A6000F0E0FFF8607B685B687B4AF2
:104C7400934207D8FB687A4A934294BF01230023E6
:104C8400DBB206E0FB68774A934294BF012300231A
:104C9400DBB2002B01D00123DBE0FB68724AA2FBEC
:104CA40003239B0CBB607B681B685B6823F03F019C
:104CB4007B681B68BA680A435A607B681B681B6A76
:104CC40023F03F017B685B68644A934202D8BB6867
:104CD400013309E0BB684FF4967202FB03F3634AA5
:104CE400A2FB03239B0901337A6812680B43136206
:104CF4007B681B68DB6923F44F4222F0FF027B6868
:104D04005B6856498B420DD8FB68591E7B685B680B
:104D14005B00B1FBF3F30133C3F30B03042B38BF84
:104D240004234FE07B689B68002B11D1FB68581E5D
:104D34007B6859680B465B000B44B0FBF3F301330B
:104D4400C3F30B03002B0CBF01230023DBB212E0DF
:104D5400FB68581E7B6859680B469B000B449900FE
:104D64000B44B0FBF3F30133C3F30B03002B0CBF71
:104D740001230023DBB2002B01D0012322E07B6856
:104D84009B68002B0ED1FB68581E7B6859680B4644
:104D94005B000B44B0FBF3F30133C3F30B0343F4A5
:104DA40000430FE0FB68581E7B6859680B469B0064
:104DB4000B4499000B44B0FBF3F30133C3F30B032F
:104DC40043F44043796809681343CB617B681B68EB
:104DD4001B6823F0C0017B68DA697B681B6A1A438D
:104DE4007B681B680A431A607B681B689B6823F412
:104DF400034323F0FF037A6811697A68D268114388
:104E04007A6812680B4393607B681B68DB6823F045
:104E1400FF017B685A697B689B691A437B681B683E
:104E24000A43DA607B681B681A687B681B6842F077
:104E340001021A607B6800221A647B68202283F8CE
:104E44003D207B6800221A637B68002283F83E20A1
:104E5400002318461037BD4680BD00BFA086010060
:104E64007F841E00FF083D0083DE1B43D34D621088
:104E740080B588B002AFF8607A601A460B467B8131
:104E840013463B81FFF7D0FB7861FB6893F83D3014
:104E9400DBB2202B40F0E0807B69009319230122D0
:104EA4007049F86800F064F90346002B01D002232E
:104EB400D3E0FB6893F83C30012B01D10223CCE012
:104EC400FB68012283F83C20FB681B681B6803F025
:104ED4000103012B07D0FB681B681A68FB681B6879
:104EE40042F001021A60FB681B681A68FB681B68C1
:104EF40022F400621A60FB68212283F83D20FB68DB
:104F0400102283F83E20FB6800221A64FB687A684A
:104F14005A62FB683A895A85FB685B8D9AB2FB68D2
:104F24001A85FB68504ADA6279897B693A6AF868BB
:104F340000F09CF80346002B01D001238DE00023F0
:104F44003B61FB681B685B693B61FB681B689B6991
:104F54003B613B6966E07A69396AF86800F0DEF91A
:104F64000346002B0DD0FB681B6C042B07D1FB6898
:104F74001B681A68FB681B6842F400721A600123FC
:104F84006BE0FB685B6A1A78FB681B681A61FB6854
:104F94005B6A5A1CFB685A62FB685B8D9BB2013BDF
:104FA4009AB2FB685A85FB681B8D013B9AB2FB6879
:104FB4001A85FB681B685B6903F00403042B1BD18F
:104FC400FB681B8D002B17D0FB685B6A1A78FB68A3
:104FD4001B681A61FB685B6A5A1CFB685A62FB68AF
:104FE4005B8D9BB2013B9AB2FB685A85FB681B8DB3
:104FF400013B9AB2FB681A857A69396AF86800F04D
:10500400CEF90346002B0DD0FB681B6C042B07D193
:10501400FB681B681A68FB681B6842F400721A601C
:1050240001231AE0FB681B8D002B94D1FB681B68DD
:105034001A68FB681B6842F400721A60FB6820223D
:1050440083F83D20FB68002283F83E20FB680022A1
:1050540083F83C20002300E0022318461837BD469D
:1050640080BD00BF020010000000FFFF80B588B0C3
:1050740002AFF8607A603B600B467B81FB68DB6AB9
:105084007B617B69082B06D07B69012B03D07B698C
:1050940013F5803F08D1FB681B681A68FB681B681E
:1050A40042F480721A600BE0FB681B6B122B07D171
:1050B400FB681B681A68FB681B6842F480721A60FC
:1050C4003B6800937B6800224FF00111F86800F000
:1050D4004FF80346002B0DD0FB681B681B6803F4D4
:1050E4008073B3F5807F03D1FB684FF400721A64B8
:1050F400032335E0FB681B69B3F5804F08D17B8936
:10510400DBB21A46FB681B6802F0FE021A611BE060
:105114007B89DB11DBB203F00603DBB263F00F0320
:10512400DAB2FB681B681A613B687A680E49F86852
:1051340000F075F80346002B01D0012310E07B89B1
:10514400DAB2FB681B681A613B687A680749F86839
:1051540000F065F80346002B01D0012300E0002392
:1051640018461837BD4680BD080001000200010042
:1051740080B584B000AFF860B9603B601346FB7142
:1051840025E03B68B3F1FF3F21D0FFF74DFA02461B
:10519400BB69D31A3A689A4202D33B68002B16D1F2
:1051A400FB6800221A63FB68202283F83D20FB6819
:1051B400002283F83E20FB681B6C43F02002FB684E
:1051C4001A64FB68002283F83C20012323E0BB68B7
:1051D4001B0CDBB2012B0DD1FB681B685B69DA4346
:1051E400BB6813409BB2002B0CBF01230023DBB22E
:1051F4001A460CE0FB681B689B69DA43BB681340E2
:105204009BB2002B0CBF01230023DBB21A46FB79AF
:105214009A42B6D0002318461037BD4680BD80B5EB
:1052240084B000AFF860B9607A603B6051E0FB681D
:105234001B685B6903F48063B3F5806F23D1FB685B
:105244001B681A68FB681B6842F400721A60FB68EA
:105254001B686FF480625A61FB6800221A63FB6862
:10526400202283F83D20FB68002283F83E20FB685F
:105274001B6C43F00402FB681A64FB68002283F889
:105284003C20012346E07B68B3F1FF3F21D0FFF7C8
:10529400CBF902463B68D31A7A689A4202D37B68F8
:1052A400002B16D1FB6800221A63FB68202283F8C6
:1052B4003D20FB68002283F83E20FB681B6C43F012
:1052C4002002FB681A64FB68002283F83C20012357
:1052D40020E0BB681B0CDBB2012B0CD1FB681B6804
:1052E4005B69DA43BB6813409BB2002B14BF0123F4
:1052F4000023DBB20BE0FB681B689B69DA43BB68E5
:1053040013409BB2002B14BF01230023DBB2002BFC
:105314008DD1002318461037BD4680BD80B584B0BA
:1053240000AFF860B9607A602DE0F86800F078F8B2
:105334000346002B01D001232DE0BB68B3F1FF3FEE
:1053440021D0FFF771F902467B68D31ABA689A42F2
:1053540002D3BB68002B16D1FB6800221A63FB68DA
:10536400202283F83D20FB68002283F83E20FB685E
:105374001B6C43F02002FB681A64FB68002283F86C
:105384003C20012307E0FB681B685B6903F0800392
:10539400802BCAD1002318461037BD4680BD80B586
:1053A40084B000AFF860B9607A602DE0F86800F06E
:1053B40037F80346002B01D001232DE0BB68B3F17D
:1053C400FF3F21D0FFF730F902467B68D31ABA6851
:1053D4009A4202D3BB68002B16D1FB6800221A63E1
:1053E400FB68202283F83D20FB68002283F83E20DE
:1053F400FB681B6C43F02002FB681A64FB68002204
:1054040083F83C20012307E0FB681B685B6903F019
:105414000403042BCAD1002318461037BD4680BDAF
:1054240080B483B000AF78607B681B685B6903F469
:105434008063B3F5806F1BD17B681B686FF4806257
:105444005A617B6800221A637B68202283F83D201E
:105454007B68002283F83E207B681B6C43F00402C7
:105464007B681A647B68002283F83C20012300E0F7
:10547400002318460C37BD4680BC704780B586B003
:1054840000AF78607B68002B01D101236CE27B685C
:105494001B6803F00103002B00F08780924B5B68CC
:1054A40003F00C03042B0CD08F4B5B6803F00C034C
:1054B400082B12D18C4B5B6803F48033B3F5803F27
:1054C4000BD1894B1B6803F40033002B6CD07B6831
:1054D4005B68002B68D1012346E27B685B68B3F507
:1054E400803F06D1804B1B687F4A43F480331360AE
:1054F4002EE07B685B68002B0CD17B4B1B687A4ADF
:1055040023F480331360784B1B68774A23F4802399
:1055140013601DE07B685B68B3F5A02F0CD1724B60
:105524001B68714A43F4802313606F4B1B686E4AF7
:1055340043F4803313600BE06B4B1B686A4A23F41B
:1055440080331360684B1B68674A23F4802313601D
:105554007B685B68002B13D0FFF766F8386108E0BE
:10556400FFF762F802463B69D31A642B01D903237F
:10557400FAE15D4B1B6803F40033002BF0D014E018
:10558400FFF752F8386108E0FFF74EF802463B692E
:10559400D31A642B01D90323E6E1534B1B6803F4AC
:1055A4000033002BF0D100E000BF7B681B6803F0E0
:1055B4000203002B63D04C4B5B6803F00C03002BFD
:1055C4000BD0494B5B6803F00C03082B1CD1464BF2
:1055D4005B6803F48033002B16D1434B1B6803F044
:1055E4000203002B05D07B681B69012B01D001232A
:1055F400BAE13D4B1B6823F0F8027B685B69DB0072
:10560400394913430B603AE07B681B69002B20D0B7
:10561400364B01221A60FFF707F8386108E0FFF7FC
:1056240003F802463B69D31A022B01D903239BE1F9
:105634002D4B1B6803F00203002BF0D02A4B1B6890
:1056440023F0F8027B685B69DB00274913430B6096
:1056540015E0264B00221A60FEF7E6FF386108E0E9
:10566400FEF7E2FF02463B69D31A022B01D903235A
:105674007AE11D4B1B6803F00203002BF0D17B6819
:105684001B6803F00803002B3AD07B689B69002B4E
:1056940019D0174B01221A60FEF7C6FF386108E0E3
:1056A400FEF7C2FF02463B69D31A022B01D903233A
:1056B4005AE10D4B5B6A03F00203002BF0D001208A
:1056C40000F0DAFA1CE00A4B00221A60FEF7ACFF85
:1056D40038610FE0FEF7A8FF02463B69D31A022B9C
:1056E40008D9032340E100BF0010024000004242F9
:1056F400800442429E4B5B6A03F00203002BE9D113
:105704007B681B6803F00403002B00F0A6800023D1
:10571400FB75974BDB6903F08053002B0DD1944B41
:10572400DB69934A43F08053D361914BDB6903F007
:105734008053BB60BB680123FB758E4B1B6803F46D
:105744008073002B18D18B4B1B688A4A43F48073F7
:105754001360FEF769FF386108E0FEF765FF024653
:105764003B69D31A642B01D90323FDE0814B1B68E9
:1057740003F48073002BF0D07B68DB68012B06D127
:105784007B4B1B6A7A4A43F0010313622DE07B686A
:10579400DB68002B0CD1764B1B6A754A23F001039E
:1057A4001362734B1B6A724A23F0040313621CE0F6
:1057B4007B68DB68052B0CD16D4B1B6A6C4A43F08C
:1057C400040313626A4B1B6A694A43F001031362C0
:1057D4000BE0674B1B6A664A23F001031362644BB8
:1057E4001B6A634A23F0040313627B68DB68002BA3
:1057F40015D0FEF719FF38610AE0FEF715FF0246DF
:105804003B69D31A41F28832934201D90323ABE0B6
:10581400574B1B6A03F00203002BEED014E0FEF793
:1058240003FF38610AE0FEF7FFFE02463B69D31A24
:1058340041F28832934201D9032395E04C4B1B6A11
:1058440003F00203002BEED1FB7D012B05D1484B65
:10585400DB69474A23F08053D3617B68DB69002B03
:1058640000F08180424B5B6803F00C03082B61D08D
:105874007B68DB69022B46D13F4B00221A60FEF79E
:10588400D3FE386108E0FEF7CFFE02463B69D31A27
:10589400022B01D9032367E0354B1B6803F0007327
:1058A400002BF0D17B681B6AB3F5803F08D1304BE5
:1058B4005B6823F400327B689B682D4913434B607B
:1058C4002B4B5B6823F474127B68196A7B685B6AF0
:1058D4000B43274913434B60274B01221A60FEF701
:1058E400A3FE386108E0FEF79FFE02463B69D31A27
:1058F400022B01D9032337E01D4B1B6803F000730F
:10590400002BF0D02FE01C4B00221A60FEF78CFE17
:10591400386108E0FEF788FE02463B69D31A022B81
:1059240001D9032320E0124B1B6803F00073002B02
:10593400F0D118E07B68DB69012B01D1012313E06E
:105944000B4B5B68FB60FB6803F480327B681B6A6B
:105954009A4206D1FB6803F470127B685B6A9A4230
:1059640001D0012300E0002318461837BD4680BD4E
:1059740000100240007000406000424280B584B0D4
:1059840000AF786039607B68002B01D10123D0E03F
:105994006A4B1B6803F007033A689A4210D9674BB5
:1059A4001B6823F0070265493B6813430B60634B94
:1059B4001B6803F007033A689A4201D00123B8E058
:1059C4007B681B6803F00203002B20D07B681B68F4
:1059D40003F00403002B05D0594B5B68584A43F489
:1059E400E06353607B681B6803F00803002B05D059
:1059F400534B5B68524A43F460535360504B5B68AB
:105A040023F0F0027B689B684D4913434B607B682D
:105A14001B6803F00103002B40D07B685B68012BFB
:105A240007D1474B1B6803F40033002B15D1012326
:105A34007FE07B685B68022B07D1414B1B6803F056
:105A44000073002B09D1012373E03D4B1B6803F065
:105A54000203002B01D101236BE0394B5B6823F077
:105A640003027B685B68364913434B60FEF7DCFD39
:105A7400F8600AE0FEF7D8FD0246FB68D31A41F24B
:105A84008832934201D9032353E02D4B5B6803F022
:105A94000C027B685B689B009A42EBD1274B1B6826
:105AA40003F007033A689A4210D2244B1B6823F090
:105AB400070222493B6813430B60204B1B6803F029
:105AC40007033A689A4201D0012332E07B681B68DD
